:100000000C9463000C948B000C948B000C94D00324
:100010000C94D0030C94D0030C948B000C948B00A4
:100020000C948B000C948B000C948B000C948B0024
:100030000C948B000C948B000C948B000C948B0014
:100040000C942E030C948B000C949E030C94780358
:100050000C948B000C948B000C948B000C948B00F4
:100060000C948B000C948B000000000024002700EF
:100070002A0000000008000201000003040700003D
:1000800000000000000000000000230026002900FE
:1000900000000000250028002B00040404040404D0
:1000A0000404020202020202030303030303010227
:1000B00004081020408001020408102001020408F6
:1000C00010204804830611241FBECFEFD8E0DEBF06
:1000D000CDBF11E0A0E0B1E0E8EFFDE002C0059087
:1000E0000D92AC33B107D9F722E0ACE3B1E001C027
:1000F0001D92A534B207E1F710E0C2E6D0E004C0DB
:100100002197FE010E94E906C136D107C9F70E9476
:10011000F3040C94EF060C940000AF92BF92CF92C0
:10012000DF92EF92FF920F931F93CF93DF936C01B7
:100130007B018B01040F151FEB015E01AE18BF0898
:10014000C017D10759F06991D601ED91FC9101904A
:10015000F081E02DC6010995892B79F7C501DF9162
:10016000CF911F910F91FF90EF90DF90CF90BF90B4
:10017000AF900895FC01538D448D252F30E0842FDE
:1001800090E0821B930B541710F0CF9608950197BF
:100190000895FC01918D828D981761F0A28DAE0FAC
:1001A000BF2FB11D5D968C91928D9F5F9F73928F33
:1001B00090E008958FEF9FEF0895FC01918D828D5F
:1001C000981731F0828DE80FF11D858D90E008952C
:1001D0008FEF9FEF0895FC01918D228D892F90E084
:1001E000805C9F4F821B91098F739927089589E83E
:1001F00091E00E94EB0021E0892B09F420E0822F9E
:10020000089580E090E0892B29F00E94F700811189
:100210000C9400000895FC01A48DA80FB92FB11D06
:10022000A35ABF4F2C91848D90E001968F7399272C
:10023000848FA689B7892C93A089B1898C9183700A
:1002400080648C93938D848D981306C00288F38903
:10025000E02D80818F7D80830895EF92FF920F9330
:100260001F93CF93DF93EC0181E0888F9B8D8C8D62
:1002700098131AC0E889F989808185FF15C09FB756
:10028000F894EE89FF896083E889F9898081837019
:10029000806480839FBF81E090E0DF91CF911F91C8
:1002A0000F91FF90EF900895F62E0B8D10E00F5FE9
:1002B0001F4F0F731127E02E8C8D8E110CC00FB6BF
:1002C00007FCFACFE889F989808185FFF5CFCE0157
:1002D0000E940B01F1CFEB8DEC0FFD2FF11DE35AC6
:1002E000FF4FF0829FB7F8940B8FEA89FB898081DA
:1002F0008062CFCFCF93DF93EC01888D8823B9F054
:10030000AA89BB89E889F9898C9185FD03C0808120
:1003100086FD0DC00FB607FCF7CF8C9185FFF2CF9D
:10032000808185FFEDCFCE010E940B01E9CFDF91E7
:10033000CF910895833081F028F4813099F0823094
:10034000A9F008958730A9F08830C9F08430B1F45D
:10035000809180008F7D03C0809180008F77809393
:100360008000089584B58F7784BD089584B58F7D0E
:10037000FBCF8091B0008F778093B000089580917B
:10038000B0008F7DF9CF1F93CF93DF93282F30E0FC
:10039000F901EE58FF4F8491F901E255FF4FD491D6
:1003A000F901E656FF4FC491CC23A9F0162F811115
:1003B0000E949A01EC2FF0E0EE0FFF1FE057FF4F75
:1003C000A591B4918FB7F894EC91111108C0D09514
:1003D000DE23DC938FBFDF91CF911F910895DE2B39
:1003E000F8CFCF93DF9390E0FC01E255FF4F2491CB
:1003F00086569F4FFC0184918823D1F090E0880FAE
:10040000991FFC01E859FF4FA591B491FC01E057F9
:10041000FF4FC591D49161110EC09FB7F8948C9194
:10042000E22FE0958E238C932881E223E8839FBFFF
:10043000DF91CF9108958FB7F894EC91E22BEC9374
:100440008FBFF6CF20917E0130917F0128173907A9
:1004500071F490917C0180917D01981741F0E091B9
:100460007C01F0E0E45CFE4F808190E008958FEF26
:100470009FEF08950895EF92FF920F931F93CF93EC
:10048000DF93DC015C96ED90FC905D97E114F10444
:1004900079F481E090E013969C938E93129790E00C
:1004A00080E0DF91CF911F910F91FF90EF90089521
:1004B0005196ED91FC91529750968C915097982FB0
:1004C00090950FB75E962C915E97122F127021FDBA
:1004D0006095F8942081112319F1282B2083E701DE
:1004E0002197F1F728E0462F50E0308160FF1AC0D5
:1004F000382B3083E7012197F1F7BA01759567959D
:10050000215089F7112381F08081892380830FBFD7
:100510005C968D919C910197F1F781E090E0C1CFBD
:100520002923DCCF3923E5CF9081892BEFCF209190
:100530007E0130917F012817390771F480917D0188
:1005400020917C0190E0805C9F4F821B910960E4C8
:1005500070E00E949F06089590E080E00895209149
:100560007E0130917F0128173907B9F490917C0101
:1005700080917D01981789F0E0917C01F0E0E45CC6
:10058000FE4F808120917C0130E02F5F3F4F2F7321
:10059000332720937C0190E008958FEF9FEF08951B
:1005A00090E080E00895FB0101900020E9F7319789
:1005B000AF01461B570BDC01ED91FC910280F381EA
:1005C000E02D09948F929F92AF92BF92EF92FF928B
:1005D0000F931F93CF93DF93CDB7DEB7A1970FB6DD
:1005E000F894DEBF0FBECDBF7C01FA01CB0119A28A
:1005F000223008F42AE08E010F5D1F4F822E912CCD
:10060000B12CA12CBF01A50194010E94B306F901F0
:10061000CA016A300CF5605DD8016E938D01232B01
:10062000242B252B79F790E080E0109721F0BD0175
:10063000C7010E94D302A1960FB6F894DEBF0FBE89
:10064000CDBFDF91CF911F910F91FF90EF90BF90A1
:10065000AF909F908F900895695CDECF1F920F92AC
:100660000FB60F9211242F933F938F939F93AF93C5
:10067000BF938091850190918601A0918701B091EF
:1006800088013091840123E0230F2D3758F501961E
:10069000A11DB11D20938401809385019093860153
:1006A000A0938701B093880180918001909181018E
:1006B000A0918201B09183010196A11DB11D80938B
:1006C000800190938101A0938201B0938301BF9137
:1006D000AF919F918F913F912F910F900FBE0F90EF
:1006E0001F90189526E8230F0296A11DB11DD2CFA9
:1006F0001F920F920FB60F9211242F933F934F9397
:100700005F936F937F938F939F93AF93BF93EF9379
:10071000FF9389E891E00E940B01FF91EF91BF9157
:10072000AF919F918F917F916F915F914F913F9189
:100730002F910F900FBE0F901F9018951F920F9240
:100740000FB60F9211242F938F939F93EF93FF93E4
:10075000E0919901F0919A018081E0919F01F091DF
:10076000A00182FD1BC090818091A2018F5F8F73D9
:100770002091A301821741F0E091A201F0E0E75738
:10078000FE4F958F8093A201FF91EF919F918F91E2
:100790002F910F900FBE0F901F9018958081F4CF6E
:1007A0001F920F920FB60F9211242F933F934F93E6
:1007B0005F936F937F938F939F93AF93BF93EF93C9
:1007C000FF93E0917E01F0917F01309749F0A6857B
:1007D000B7858585968D91FF14C09C918923A1F4DE
:1007E000FF91EF91BF91AF919F918F917F916F9109
:1007F0005F914F913F912F910F900FBE0F901F90DF
:1008000018959C91892361F7A389B4899C91858966
:10081000809589238C93868997890197F1F7608D5C
:10082000718DA685B785558538E020E0CB0101970D
:10083000F1F7822F90E095958795282F4C914523CD
:1008400009F02068315091F7868D81FD20958091C7
:100850007D0190E001968F73992730917C013817C4
:1008600099F0A0917D01B0E0A45CBE4F2C938093E1
:100870007D01828D938D0197F1F7A389B4898C91C5
:100880009589892B8C93ACCF868D8160868FF1CF33
:1008900010928C0110928B0188EE93E0A0E0B0E002
:1008A00080938D0190938E01A0938F01B09390015E
:1008B00024E031E030938A012093890125EC30E077
:1008C000309396012093950124EC30E03093980109
:1008D0002093970120EC30E030939A012093990106
:1008E00021EC30E030939C0120939B0122EC30E01E
:1008F00030939E0120939D0126EC30E03093A001BF
:1009000020939F011092A2011092A3011092A401C2
:100910001092A501109229021092280280932A02B7
:1009200090932B02A0932C02B0932D0286E191E0CC
:10093000909327028093260210923D0210923C026F
:1009400010923F0210923E02109241021092400219
:100950001092430210924202609144026E7F6D7FBA
:10096000609344026695617081E068278BE00E9485
:10097000C30161E08BE00E94F101E9EBF0E0E4915A
:10098000E0933602E5EAF0E0E491F0E0EE0FFF1FBD
:10099000E057FF4F859194919093380280933702EE
:1009A00060E08AE00E94F1018091440281FD04C070
:1009B00061E08AE00E94C3018AE080933202E8EBA2
:1009C000F0E0E491E0933302E4EAF0E0E491F0E057
:1009D000EE0FFF1FEA57FF4F8591949190933502D8
:1009E000809334020895789484B5826084BD84B580
:1009F000816084BD85B5826085BD85B5816085BD1A
:100A000080916E00816080936E00109281008091D1
:100A10008100826080938100809181008160809359
:100A20008100809180008160809380008091B1007E
:100A300084608093B1008091B00081608093B000A9
:100A400080917A00846080937A0080917A0082603D
:100A500080937A0080917A00816080937A008091FF
:100A60007A00806880937A001092C100109241024F
:100A70001092400210923F0210923E0210923D02EC
:100A800010923C028DE991E09093430280934202E0
:100A900090913202963108F047C02DEB30E0309350
:100AA0003D0220933C022BE931E030933F0220933A
:100AB0003E022CE231E0309341022093400220912B
:100AC000680084E0983048F031E09E3008F430E06F
:100AD00081E001C0880F3A95EAF7822B8093680085
:100AE0002DE630E0983050F02BE630E09E3030F0CC
:100AF0002CE630E0963110F030E020E030933A02FE
:100B000020933902292F30E0983008F0EAC081E0C4
:100B100001C0880F9A95EAF780933B0280914202C8
:100B2000909143020197F1F7809140029091410228
:100B3000892B49F1E0917E01F0917F0182E0E6325C
:100B4000F80709F1309739F0A389B4899C91858918
:100B5000809589238C93809144028E7F80934402F8
:100B600010927D0110927C0186E292E090937F01C9
:100B700080937E01E0913902F0913A028081909158
:100B80003B02892B8083E0919901F0919A0182E0E8
:100B90008083E0919501F09196011082E091970198
:100BA000F09198018FEC80831092A101E0919D015A
:100BB000F0919E0186E08083E0919B01F0919C0181
:100BC000808180618083E0919B01F0919C01808114
:100BD00088608083E0919B01F0919C018081806816
:100BE0008083E0919B01F0919C0180818F7D8083C7
:100BF00061E08CE00E94F10160E088E00E94F10178
:100C000064E271E089E891E00E94D30268E371E058
:100C100089E891E00E94D3020AE710E096EBE92E02
:100C200090E0F92E22EAC22E20E0D22EC0E0D0E0E1
:100C300086E292E00E949702181619060CF046C050
:100C400086E292E00E94AF02813309F057C061E072
:100C50008CE00E94C301F8018491F701A490F60191
:100C6000B490912C812CBB2099F081110E949A01A3
:100C7000EB2DF0E0EE0FFF1FEA57FF4FA591B49167
:100C80008C91A82291E080E009F490E0892E982EC2
:100C9000092C000CAA08BB082AE0B501A40189E8C8
:100CA00091E00E94E20268E371E089E891E00E942D
:100CB000D3022AE0B501A40186E292E00E94E2029A
:100CC00068E371E086E292E00E94D302209709F483
:100CD000AFCF0E94F700882309F4AACF0E9400003A
:100CE000A7CF9E3040F42850310981E001C0880F21
:100CF0002A95EAF711CF2E503109F7CF60E08CE04A
:100D00000E94C301E3CF86E191E090932702809394
:100D1000260280917E0190917F018652924071F46B
:100D2000E0913902F0913A02908180913B028095E6
:100D30008923808310927F0110927E01089597FB92
:100D4000072E16F4009407D077FD09D00E94D5062F
:100D500007FC05D03EF4909581959F4F08957095BE
:100D600061957F4F0895A1E21A2EAA1BBB1BFD01BE
:100D70000DC0AA1FBB1FEE1FFF1FA217B307E4077A
:100D8000F50720F0A21BB30BE40BF50B661F771FD2
:100D9000881F991F1A9469F76095709580959095B2
:100DA0009B01AC01BD01CF010895AA1BBB1B51E102
:100DB00007C0AA1FBB1FA617B70710F0A61BB70BCB
:100DC000881F991F5A95A9F780959095BC01CD0170
:100DD0000895EE0FFF1F0590F491E02D099410E0A7
:100DE000C2E6D0E004C0FE010E94E9062196C336A7
:080DF000D107C9F7F894FFCF09
:100DF800000000002D018D00BA007A01EB00C90047
:100E0800DD00000000003B028D00D0023A0297028C
:100E1800AF02220253797374656D20537461727442
:0C0E2800696E67202E2E2E000D0A0000BF
:00000001FF
